S02700004F6E2D64656D616E645F547261666669635F6C696768745F636F6E74726F6C2E73726563B5
S11300000C942A000C94E7010C9447000C944700CC
S11300100C9447000C9447000C9447000C94470040
S11300200C9447000C9447000C9447000C94470030
S11300300C9447000C9447000C9447000C94470020
S11300400C9447000C9447000C9447000C94470010
S11300500C94470011241FBECFE5D8E0DEBFCDBF0E
S113006010E0A0E6B0E0E8E6F9E002C005900D92E9
S1130070A236B107D9F720E0A2E6B0E001C01D9294
S1130080A436B207E1F70E9442020C94B2040C9425
S1130090000060E081E40E94150261E081E40E94B6
S11300A0150262E081E40E94150260E082E40E948D
S11300B0150261E082E40E94150262E082E40E947B
S11300C0150262E084E40E94FC010E9490040895F9
S11300D080916100813009F0BEC08091600082305F
S11300E009F453C018F4813021F1F2CF833009F4BC
S11300F078C0843009F4A1C0EBCF62E084E40E94AC
S11301000302813029F4809163008F5F8093630040
S113011061E081E40E94230260E081E40E941C0209
S113012084EF91E00E949B04809162008F5F809332
S1130130620080916100813021F4809162008A30F4
S1130140E0F2809160008F5F809360001092620003
S1130150BFCF62E084E40E940302813029F48091DD
S113016063008F5F8093630060E081E40E94230258
S113017061E081E40E942A0284EF91E00E949B04E2
S1130180809162008F5F8093620080916100813072
S113019021F4809162008A30E0F2809160008F5FE8
S11301A0809360001092620093CF62E084E40E9426
S11301B00302813029F4809163008F5F8093630090
S11301C061E081E40E94230262E081E40E941C0257
S11301D084EF91E00E949B04809162008F5F809382
S11301E0620080916100813021F4809162008A3044
S11301F0E0F2809160008F5F809360001092620053
S113020067CF62E084E40E940302813029F4809184
S113021063008F5F8093630062E081E40E942302A5
S113022061E081E40E942A0284EF91E00E949B0431
S1130230809162008F5F80936200809161008130C1
S113024021F4809162008A30E0F281E080936000C2
S1130250109262003DCF81113BCF62E081E40E94A5
S113026030028130C1F560E082E40E941C0288E81B
S113027093E10E949B0462E081E40E942302C0E0B7
S1130280D0E00DC061E081E40E942A0261E082E4D2
S11302900E942A0284EF91E00E949B042196CA30B6
S11302A0D10584F361E081E40E94230261E082E4E9
S11302B00E94230260E082E40E94230260E081E461
S11302C00E941C0262E082E40E941C0288E893E11E
S11302D00E949B046FC060E081E40E943002813080
S11302E039F061E081E40E943002813009F062C09B
S11302F062E082E40E941C02C0E0D0E00DC061E034
S113030081E40E942A0261E082E40E942A0284EFCE
S113031091E00E949B042196CA30D10584F362E0E7
S113032082E40E94230260E081E40E94230261E0EF
S113033081E40E94230261E082E40E94230262E0DD
S113034081E40E941C0260E082E40E941C0288E8AE
S113035093E10E949B0462E081E40E942302C0E0D6
S1130360D0E00DC061E081E40E942A0261E082E4F1
S11303700E942A0284EF91E00E949B042196CA30D5
S1130380D10584F361E081E40E94230261E082E408
S11303900E94230260E082E40E94230260E081E480
S11303A00E941C0262E082E40E941C0288E893E13D
S11303B00E949B0462E082E40E94230282E0809314
S11303C0600081E0809361001092630081CE1F92EF
S11303D00F920FB60F9211248F9380916300823095
S11303E018F01092630002C0109261008F910F9078
S11303F00FBE0F901F901895982F862F40E0692FFD
S11304000E9449020895CF93DF931F92CDB7DEB7C0
S1130410982F862FAE014F5F5F4F692F0E94830391
S113042089810F90DF91CF910895982F862F41E015
S1130430692F0E9449020895982F862F41E0692F61
S11304400E94E6020895982F862F40E0692F0E94AB
S1130450E6020895982F862F692F0E94EE030895CF
S1130460CF93DF931F92CDB7DEB7982F862FAE01BF
S11304704F5F5F4F692F0E94830389810F90DF9143
S1130480CF9108950E9449000E94680080E090E0A6
S11304900895623469F118F4613441F08DC0633415
S11304A009F448C0643409F466C086C041110FC021
S11304B04AB321E030E0B90102C0660F771F8A9584
S11304C0E2F7CB01809584238ABB83E00895413011
S11304D009F074C04AB321E030E0B90102C0660FEC
S11304E0771F8A95E2F7CB01842B8ABB83E00895BA
S11304F041110FC047B321E030E0B90102C0660FDB
S1130500771F8A95E2F7CB018095842387BB83E02C
S11305100895413009F054C047B321E030E0B901F7
S113052002C0660F771F8A95E2F7CB01842B87BB45
S113053083E0089541110FC044B321E030E0B901D4
S113054002C0660F771F8A95E2F7CB01809584235A
S113055084BB83E008954130A9F544B321E030E041
S1130560B90102C0660F771F8A95E2F7CB01842B8D
S113057084BB83E0089541110FC041B321E030E012
S1130580B90102C0660F771F8A95E2F7CB01809507
S1130590842381BB83E008954130B1F441B321E069
S11305A030E0B90102C0660F771F8A95E2F7CB01EC
S11305B0842B81BB83E0089586E0089584E0089548
S11305C084E0089584E0089584E00895623469F134
S11305D018F4613441F08DC0633409F448C06434C4
S11305E009F466C086C041110FC04BB321E030E06E
S11305F0B90102C0660F771F8A95E2F7CB01809597
S113060084238BBB83E00895413009F074C04BB35D
S113061021E030E0B90102C0660F771F8A95E2F746
S1130620CB01842B8BBB83E0089541110FC048B3E9
S113063021E030E0B90102C0660F771F8A95E2F726
S1130640CB018095842388BB83E00895413009F071
S113065054C048B321E030E0B90102C0660F771FEF
S11306608A95E2F7CB01842B88BB83E0089541117E
S11306700FC045B321E030E0B90102C0660F771F17
S11306808A95E2F7CB018095842385BB83E00895A6
S11306904130A9F545B321E030E0B90102C0660F4D
S11306A0771F8A95E2F7CB01842B85BB83E00895FD
S11306B041110FC042B321E030E0B90102C0660F1E
S11306C0771F8A95E2F7CB018095842382BB83E070
S11306D008954130B1F442B321E030E0B90102C0E1
S11306E0660F771F8A95E2F7CB01842B82BB83E0E8
S11306F0089586E0089585E0089585E0089585E0ED
S1130700089585E00895623409F118F4613439F0EC
S113071062C0633491F1643409F446C05CC099B397
S113072021E030E0B901082E02C0660F771F0A9459
S1130730E2F7292F30E026233723B90102C075954B
S113074067958A95E2F7FA01608347C096B321E082
S113075030E0B901082E02C0660F771F0A94E2F751
S1130760292F30E026233723B90102C075956795F8
S11307708A95E2F7FA01608330C093B321E030E058
S1130780B901082E02C0660F771F0A94E2F7292FD9
S113079030E026233723B90102C0759567958A9501
S11307A0E2F7FA01608319C090B321E030E0B901A7
S11307B0082E02C0660F771F0A94E2F7292F30E053
S11307C026233723B90102C0759567958A95E2F708
S11307D0FA01608302C086E0089508950F931F9381
S11307E0CF93DF931F92CDB7DEB7082F162FAE013C
S11307F04F5F5F4F0E948303123449F118F41134A0
S113080041F07FC0133409F440C0143409F45BC0D0
S113081078C08981813069F42BB381E090E002C013
S1130820880F991F0A95E2F7809582238BBB83E09A
S113083071C0811168C02BB381E090E002C0880FC1
S1130840991F0A95E2F7822B8BBB83E063C08981F1
S1130850813069F428B381E090E002C0880F991FC9
S11308600A95E2F78095822388BB83E053C0811107
S11308704CC028B381E090E002C0880F991F0A950C
S1130880E2F7822B88BB83E045C08981813069F41B
S113089025B381E090E002C0880F991F0A95E2F722
S11308A08095822385BB83E035C0811130C025B398
S11308B081E090E002C0880F991F0A95E2F7822B2D
S11308C085BB83E027C08981813069F422B381E04C
S11308D090E002C0880F991F0A95E2F78095822361
S11308E082BB83E017C0811114C022B381E090E081
S11308F002C0880F991F0A95E2F7822B82BB83E01E
S113090009C086E007C085E005C085E003C085E036
S113091001C085E00F90DF91CF911F910F91089551
S1130920789485B7826085BF85B78E7F85BF8BB786
S113093080648BBF0895880F991F880F991F23B770
S1130940216023BF07C008B600FEFDCF88B78160D1
S113095088BFC9019C0121503109892BA1F713BE1D
S10B096080E00895F894FFCF34
S1050968010187
S9030000FC
